:020000040800F2
:10000000C8090020E90100080D0500080F050008D7
:1000100013050008170500081B0500080000000074
:100020000000000000000000000000001F050008A4
:1000300021050008000000008545000895480008DB
:10004000030200080302000803020008030200087C
:10005000030200080302000803020008030200086C
:10006000030200080302000803020008030200085C
:10007000030200080302000803020008030200084C
:10008000030200080302000803020008030200083C
:10009000030200080302000803020008030200082C
:1000A000030200080302000803020008030200081C
:1000B000030200080302000803020008030200080C
:1000C00003020008030200080302000803020008FC
:1000D00003020008A55500080302000803020008F7
:1000E00003020008030200080302000803020008DC
:1000F00003020008030200080302000803020008CC
:1001000003020008030200080302000803020008BB
:1001100003020008030200080302000803020008AB
:10012000030200080302000803020008030200089B
:1001300000F002F800F048F80AA090E8000C8244B1
:100140008344AAF10107DA4501D100F03DF8AFF28E
:10015000090EBAE80F0013F0010F18BFFB1A43F0A5
:10016000010318475062000070620000103A24BF7B
:1001700078C878C1FAD8520724BF30C830C144BF0C
:1001800004680C607047000000230024002500264E
:10019000103A28BF78C1FBD8520728BF30C148BFEA
:1001A0000B607047702905F08783642905F014837C
:1001B000782905F07483732905F054850020704771
:1001C0001FB51FBD10B510BD05F0B0FD1146FFF7FE
:1001D000F7FF00F04FF905F0CEFD03B4FFF7F2FF93
:1001E00003BC05F085F9000009488047094800472D
:1001F000FEE7FEE7FEE7FEE7FEE7FEE7FEE7FEE7D7
:10020000FEE7FEE704480549054A064B7047000033
:100210000703000831010008C8030020C8090020B6
:10022000C8050020C80500200CB5002001900090F2
:100230006C48006840F480306A49086000BF694833
:10024000006800F4003000900198401C0190009874
:1002500018B90198B0F5A06FF1D16248006800F4B8
:10026000003010B10120009001E0002000900098C3
:10027000012843D15C48006840F010005A490860EA
:100280000846006820F0030008600846006840F057
:100290000200086053484068524948600846406878
:1002A00048600846406840F48060486008464068FE
:1002B00020F47C1048600846406840F4E81048602C
:1002C0000846006840F08070086000BF454800683C
:1002D00000F000700028F9D04248406820F0030088
:1002E000404948600846406840F00200486000BF4E
:1002F0003C48406800F00C000828F9D10CBD10B54E
:10030000FFF792FF10BD10B53648006840F00100BD
:10031000344908600846406834490840314948601B
:1003200008460068324908402E49086008460068BF
:1003300020F4802008600846406820F4FE004860F1
:100340004FF41F008860FFF7DAFF4FF00060294983
:10035000086010BD10B5002100200022214B5B6811
:1003600003F00C0121B1042906D0082928D107E0A7
:10037000214B224C236027E01F4B204C236023E0BD
:10038000184B5B6803F47010164B5B6803F4803203
:10039000022303EB904022B9194B4343174C2360CF
:1003A0000DE0104B5B6803F4003323B1144B43435F
:1003B000124C236003E0104B4343104C236003E0D6
:1003C0000D4B0E4C236000BF00BF064B5B68C3F3B0
:1003D00003130C4CE15C094B1B68CB40074C2360BA
:1003E00010BD000000100240002002400000FFF895
:1003F000FFFFF6FE08ED00E000127A00000000208A
:1004000000093D000400002011E020212A4804F0EA
:100410002DFF20B92021284804F035FF03E02021DA
:10042000254804F032FF4FF47A7001F0F2FCECE75B
:1004300010B586B000240520ADF804001FA004907C
:10044000214800904FF48050039069461F4801F006
:10045000C0F90446204606B010BD10B50024FFF7D1
:10046000E7FF044624B11AA005F05AF9012010BD97
:100470002046FCE710B500244FF4407004F0A4FFC0
:1004800005F010F820210C4804F0FDFE03F002FEF8
:10049000044624B114A005F043F9012010BDFFF774
:1004A000DCFF044624B114A005F03AF90120F5E779
:1004B00003F0DDFD0020F1E7000C01406C65645F96
:1004C0007461736B00000000090400081400002030
:1004D0006372656174206C6564207461736B20665F
:1004E00061696C0A000000006372656174207461C8
:1004F000736B206661696C007461736B2063726555
:100500006174206661696C210A000000704700BFB9
:10051000FEE700BFFEE700BFFEE700BFFEE7704753
:100520007047000070B5002400254FF480752946FF
:100530004948006803F0FBFE484908600846006827
:1005400000B970BD0020044608E04449096801EB89
:10055000C4004060006000BF601C0446202CF4D33F
:1005600000BFEEE770B504460D463C49096801EB53
:10057000C50000F068F838B14FF00040E840384955
:1005800009680843364908603448006800EBC50133
:10059000086842686260206042681460446000BF7E
:1005A00000BF70BD70B5044600BFD4E9000108600B
:1005B000D4E90010486000206060206000BFA4F112
:1005C0002805E988254A126802EBC10000F03BF8D3
:1005D00040B1A9794FF00040C840214909688143E2
:1005E0001F48016070BD00211D48006848B11C48CB
:1005F0000068B0FA80F11948006800EBC10040685B
:1006000070470020FCE7014600200022134B1B68C6
:1006100003EBC1035A6801E0401C52680F4B1B6892
:1006200003EBC1039342F7D1704730B50024002596
:1006300000BF04E02046FFF7E6FF0544641C202CC1
:10064000F8D3284630BD01464868884201D10120D0
:1006500070470020FCE70000E400002018000020A4
:100660001C0000200EB50820009000BF4FF0FF33A3
:100670006A4601A9FB48006802F09DFA0446002C76
:10068000F4D100980828F1D101980028EED000F0AC
:1006900051FC0546DDE90110884700F04BFC401B8A
:1006A000E4E710B586B01821684605F01AFAAFF2F3
:1006B0004B0000904FF480500390EBA0049000207A
:1006C000ADF804006946EB4801F083F80446204683
:1006D00006B010BD2DE9F8434021E74805F001FAC6
:1006E0000020E64908604FF4E0784146E44800689D
:1006F00003F01DFE044614B9E248BDE8F883414604
:10070000204605F0EEF9E0480460E048046000206F
:10071000208125461C34012605E026812C602546D3
:10072000701C86B21C34102EF7DB08200023CD4A43
:1007300010210090184602F04AF8074617B1D14838
:10074000001DDAE7FFF7ADFF074617B1CD48401DA2
:10075000D3E70020D1E72DE9F84F0146002600201D
:100760004FF0FF3A471E00974FF0100CE0468146CD
:100770000F69CF600F894FEAE77B07EB1B7B4FEADE
:100780002B1BA7EB0B1B1FFA8BF4BB4F57F82470E6
:1007900007F06047B7F1C04F7CD1B74F57F82470CE
:1007A00047F00047DFF8D0B24BF824705F4657F8A7
:1007B000247027F07F43002532E0AF4F57F82570B3
:1007C00027F07F424AB1A54207D0AB4F57F82570BA
:1007D00007F04047B7F1404F00D01FE09A420CD3DA
:1007E000B2FBF3F703FB17273FB9B2FBF3F757450B
:1007F00013D2B2FBF3FAAC460FE09A420DD2B3FB30
:10080000F2F702FB173747B9B3FBF2FB009FBB457A
:1008100003D2B3FBF2F70097A84600BF6F1CBDB22E
:10082000102DCADBBCF1100F24D0944F386810E0B3
:10083000C768B9440789CCEBCC0BDFF84CE2DEF893
:1008400000E00EEB8B0BBBF808B05F4500D102E077
:1008500000680028ECD100BF80B30769A7EB090747
:10086000D1F810B0B7FBFBFE0BFB1E77ABEB070715
:10087000CF6047E0B8F1100F44D00027CF60C8EB3D
:10088000C807DFF804B2DBF800B00BEB870630686E
:100890004DE0FFE7784F57F8247007F06047B7F155
:1008A000804F2FD1744F57F8247047F00047DFF87E
:1008B000C8B14BF82470714F38681AE022E0D0F8C4
:1008C00010B0D1F810E0F34512D107894FEAE77B69
:1008D00007EB1B7B4FEA2B1BA7EB0B1BDFF898E109
:1008E0005EF82BB00BF0404BBBF1404F00D102E063
:1008F00000680028E3D100BF20B10027CF60064682
:10090000006814E05D4F38680DE0C768D1F80CB09E
:100910005F4500D909E0CF68D0F80CB0A7EB0B0712
:10092000CF60064600680028EFD100BF00BF086016
:1009300028B1C768D1F80CB0A7EB0B07C76016B990
:100940004E4F396000E0316002270F71BDE8F88F2B
:1009500010B54E49096801604C49086000210171D9
:1009600000220189CB1701EB13731B11A1EB0313B9
:10097000414C44F8232010BDF0B501460022002070
:100980003E4B1B6803B9F0BD3C4B186801E00246C2
:1009900000688842FBD103682BB10368DB68C46838
:1009A00023440468E3601AB9344C0368236001E00F
:1009B0000368136000230360012303710B89DD17B3
:1009C00003EB15752D11A3EB05152B4E56F825508D
:1009D00025F000451C46DE1703EB16763611A3EB17
:1009E0000616254F47F8265000BFCCE71CB5234814
:1009F000046832E0214920680860A06900906069BD
:100A000001900023082269461648006802F009F99F
:100A10006079A0B92046FFF79BFF20894FF6E0716F
:100A2000884203DA20891030208114E02089C11720
:100A300000EB11710911A0EB011121810BE060792C
:100A4000012803D12046FFF786FE04E060790228E2
:100A500001D1012020710948046814B1E068002820
:100A6000C8D01CBD200000205377745F5461736BA5
:100A70000000000054000020080100202C0000208D
:100A8000E4000020070300022400002028000020CA
:100A900010B5F748006848B1F5480068C068401EC6
:100AA000F3490968C86008B9FFF7A0FF002010BD2E
:100AB00070B5024600230C6810681BE00AE0C568A8
:100AC000CE68B54200D907E0CD68C668AD1BCD60E1
:100AD000034600680028F2D100BF086018B1C5685D
:100AE000CE68AD1BC5600BB9116000E019600B4604
:100AF000214624680029E1D170BD70B50446002567
:100B0000DC48006800B970BDDB480068844201D948
:100B1000D9480468D7480068C068A04207D3D548C0
:100B20000068C068001BD3490968C86016E0D24855
:100B30000068001BCF490968C860D048006868B1E8
:100B40000020CE4909680860C94805682946C94897
:100B5000FFF7AEFFC7480068C5490860C448006891
:100B6000C06808B9FFF742FF0020C2490860C349C6
:100B7000086000BFC7E7024600210020BC4B19688F
:100B800005E0CB681844914200D101E00968F8E71C
:100B900000BF70472DE9F84F06460D4617469846A8
:100BA000DDE90AB9DDF830A016B9B548BDE8F88F1F
:100BB00035B1012D04D0022D02D0B148401CF5E71B
:100BC00017B9AF48401EF1E7B8F1000F02D1AC48A9
:100BD000801CEBE7B9F1000F05D0B9F1010F02D08D
:100BE000A7481030E2E7BAF1010F05D0BAF1000FC3
:100BF00002D0A3481130D9E703F0B4FC0090A1481B
:100C0000006828B9009803F0B5FC9D48C01CCDE7EA
:100C10009C4804689B4920680860009803F0AAFC7F
:100C2000A7616571266100202060E060C4F814B0FF
:100C300084F8069084F807A0012020712089A8F884
:100C400000000020B2E72DE9F04705464FF000080C
:100C50004FF6F070854203DB8948001DBDE8F08740
:100C600003F080FC81462846E91705EB1171091154
:100C7000A5EB01118FB2C7EBC7008349096801EBEF
:100C800080042089A84205D0484603F073FC7C48C4
:100C9000001DE3E7E07901284ED1607901284BD1AE
:100CA0002089C21700EB12721211A0EB0212774BCF
:100CB00053F8222042F080420146C31700EB137321
:100CC0001B11A0EB0313DFF8C4C14CF823200A2149
:100CD0002069B0FBF1F201FB120068BB2089C2174A
:100CE00000EB12721211A0EB0212634653F822209D
:100CF00042F000520146C31700EB13731B11A0EB27
:100D000003134CF823200A212069B0FBF1F6208957
:100D1000C21700EB12721211A0EB0212634653F8D5
:100D2000222066F317020146C31700EB13731B1151
:100D3000A0EB03134CF82320207920B101280BD01D
:100D400002280DD104E0DFF8388108F105080CE035
:100D50002046FFF711FE00BF2046FFF7FCFC04E031
:100D6000DFF81C8108F10D0800BF00BF484603F002
:100D700001FC404672E72DE9F041044600274FF69A
:100D8000F070844203DB3E48001DBDE8F08103F0B3
:100D9000E9FB80462046E11704EB11710911A4EB31
:100DA00001118EB2C6EBC6003749096801EB800518
:100DB0002889A04205D0404603F0DCFB3048001DE6
:100DC000E3E7287920B1012805D002280AD105E0FF
:100DD0002B4F7F1D09E02A4F0C3706E02846FFF70E
:100DE000CBFD02E0264F0D3700BF00BF404603F0A9
:100DF000C1FB3846C9E72DE9F04704460E464FF0DF
:100E000000084FF6F070844203DB1D48001DBDE86A
:100E1000F08716B91A480F30F9E703F0A3FB8146B3
:100E20002046E11704EB11710911A4EB01118FB2F7
:100E3000C7EBC7001449096801EB80052889A04267
:100E400005D0484603F096FB0D48001DDFE72879E2
:100E500020B1012807D002281FD119E0DFF8208037
:100E600008F105081CE0DFF8188008F10C0817E00D
:100E70002C0000203400002030000020380000202A
:100E800001030002280000202400002008010020A7
:100E90002846FFF770FE306002E0DFF8908000BF68
:100EA00000BF484603F066FB4046B0E72DE9F0413D
:100EB000044600274FF6F070844203DB1B480938D4
:100EC000BDE8F08103F04EFB80462046E11704EBBD
:100ED00011710911A4EB01118EB2C6EBC6001449C1
:100EE000096801EB80052889A04205D0404603F03F
:100EF00041FB0E480938E3E7287920B1012809D0E1
:100F000002280BD102E0094F083F09E02846FFF70D
:100F100033FD00BF2846FFF71BFD01E0034F00BF74
:100F200000BF404603F026FB3846C9E70E03000227
:100F300024000020514903C97047514800684FF40C
:100F40007A71B0FBF1F0704770B50446B4F1FF3F21
:100F500002D14FF0FF3070BD4FF47A70A4FB005007
:100F600001464FF47A720023284604F062FBF2E750
:100F700070B504464FF47A70A4FB005001464FF45C
:100F80007A720023284604F054FB70BD2DE9F04727
:100F900086B00446894692462CB1B9F1000F02D0C2
:100FA000BAF1000F03D1374806B0BDE8F087002141
:100FB000D4E9000241EA020740EA0108304800682B
:100FC00005F048F80022304BCDE9000104F0EAFEBC
:100FD000CDE904013846414605F050F8CDE902015B
:100FE000DDE9042304F0DEFE05460E4628463146C0
:100FF00005F0DEF807468846CAF80070C9F8008098
:101000000020D1E72DE9F04786B004468946924694
:101010002CB1B9F1000F02D0BAF1000F03D1194879
:1010200006B0BDE8F0870021D4E9000241EA0207DA
:1010300040EA01081248006805F00CF80022134B42
:10104000CDE9000104F0AEFECDE904013846414689
:1010500005F014F8CDE90201DDE9042304F0A2FE55
:1010600005460E462846314605F0A2F80746884652
:10107000CAF80070C9F800800020D1E7880000207D
:10108000000000201000000200408F4080842E41AC
:1010900042684A6008604268116041607047D0E968
:1010A00000121160D0E9002151600021416001600F
:1010B000704700BFFEE770B504460D46207900F08A
:1010C000040090B104F12800FFF76CFAA08820F02A
:1010D0000400A080E580A08840F00400A080E188A2
:1010E00004F12800FFF73EFA00E0E58070BD2DE92D
:1010F000F0470446884608F01F074FEA581907B121
:1011000001E0A9F10109A06B00F0784040EA090074
:10111000A063F7488088074407F01F07A06B67F3B8
:10112000DF60A063F248006800EBC7067068B04259
:1011300005D104F13001304601F0C4F833E07068A5
:10114000A0F1300500BFA86B20F07840A16B21F022
:10115000784188420CD8A06B20F07840A96B21F030
:101160007841401AA16B01F078410843A0630CE07C
:10117000A86B20F07840A16B21F07841401AA96B50
:1011800001F078410843A86306E0686BA0F13005E0
:1011900005F13000B042D6D100BF04F1300105F1B5
:1011A000300001F08FF8BDE8F0872DE9F0410446EA
:1011B000A06BC70ECE48006800EBC706606BB0425C
:1011C0000ED0606BA0F13005A86B20F07840A16BC9
:1011D00021F078410844A96B01F078410843A863E5
:1011E00004F13000FFF75BFFBDE8F0812DE9F0412D
:1011F0000027BF498988481CC11700EBD1614911FC
:10120000A0EB4111BA4A91801046006811468988C6
:1012100000EBC1056868A84201D1BDE8F0816868AB
:10122000A0F1300443E0A688A06B20F0784018B10C
:10123000A06B401EA0633EE004F13000FFF72FFFDB
:1012400006F0080058B1A08820F00800A08004F142
:101250002800FFF724FF0020A061E06117E006F4FA
:10126000806020B1A08820F48060A0800FE006F4A8
:10127000005040B104F12800FFF711FFA08820F4CE
:101280000050A08003E0A08820F02000A08006F09D
:10129000020048B9A08840F00400A080E18804F171
:1012A0002800FFF75FF901276868A0F1300404F116
:1012B0003000A842B7D100BF0FB103F099F900BFC9
:1012C000ABE7014601F0100008B18AA0704701F0B9
:1012D000040008B189A0F9E701F0200008B189A055
:1012E000F4E701F0080030B101F0400008B187A038
:1012F000ECE789A0EAE701F0020008B188A0E5E781
:1013000001F4005030B101F0400008B186A0DDE7E3
:101310008AA0DBE78CA0D9E770B50446C4EBC40013
:1013200000EB40008B49096801EB8000C068006851
:10133000B0F1CC3F2ED1C4EBC40000EB4000854996
:10134000096801EB8000C068051D00E02D1DC4EB9D
:10135000C40000EB40007F49096851F82000A84212
:1013600003D92868B0F1CA3FF0D0C4EBC40000EB49
:1013700040007849096801EB80008068C4EBC40133
:1013800001EB4101734A126802EB8101C968691AD5
:10139000461A12E000BF70A004F0C2F9C4EBC4000A
:1013A00000EB40006B4A126802EB8000416A6CA0BF
:1013B00004F0B6F900BF4FF0FF36304670BDF0B50F
:1013C00087B000BF64A004F0ABF96E4804F0A8F940
:1013D00000BF00BF60A004F0A3F96BA004F0A0F967
:1013E00000BF00BF5CA004F09BF9684804F098F9C6
:1013F00000BF00BF58A004F093F963A004F090F977
:1014000000BF002549E0C5EBC50000EB4000514995
:10141000096801EB8004207900F0010000B13BE095
:1014200000BF4DA004F07CF92069FFF775FF064668
:10143000A088FFF746FF07462268E168A06CCDE967
:101440000262CDE90410A068CDE90070E38850483D
:101450002269616A04F064F900BFA06948B100BF65
:101460003DA004F05DF9A069C1884AA004F058F9D4
:1014700009E000BF38A004F053F94FF6FF7145A012
:1014800004F04EF900BF00BF33A004F049F93EA0BC
:1014900004F046F900BF00BF6D1C4048006885425B
:1014A000B1D3002007B0F0BD70B53C480068401CC7
:1014B000542100FB01F631463948006802F037FF3D
:1014C000244908600846006808B9364870BD3146AE
:1014D0002048006804F005FB334800F0DDFE334887
:1014E00000F0DAFE324800F0D7FE002483E000006E
:1014F0007000002052756E6E696E670052656164FF
:101500007900000044656C617900000050656E64EC
:1015100054696D654F75740050656E64000000007D
:1015200053757370656E6400517565756550656EB1
:101530006454696D654F75740000000051756575E0
:101540006550656E64000000496D706F7373696269
:101550006C6500003C0000205B4552525D2000009D
:1015600043555252454E54207461736B20257320AD
:10157000737461636B206F766572666C6F77210A96
:1015800000000000E86200080A0000006462000831
:101590006C6300083078252D377800004C0000205F
:1015A000E40000200002000358000020600000203A
:1015B000680000200120C4EBC40101EB4101FD4A99
:1015C000126802EB81018880C4EBC40000EB40008C
:1015D000F849096801EB80000461C4EBC40000EB2A
:1015E0004000F44A126802EB800000F12801F24842
:1015F00000F068FE641C0F2CDCD9F048002101606B
:101600004160EF480068C0EBC00000EB4000E949D2
:10161000096801EB8000E949086008460068046138
:101620001120096888802020E4490968C880FEF7F5
:1016300079FF4FF480763146E248006802F077FE89
:1016400005460DB9E04841E73146284604F049FA1D
:10165000DE4805600020DD498880002404E028463B
:1016600000F01AFE641C0835202CF8D300202DE76A
:101670002DE9F05F07460C464FF000084FF0FF3AA7
:1016800017B9D348BDE8F09F14B9D148801FF9E7D6
:10169000206910B9CE48801EF4E7206810B9CC4804
:1016A000C01EEFE7A0881F2802DDC948001FE9E738
:1016B000A0881F2806D1C7492068884202D0C448A4
:1016C000001FDFE7C449C54A511AE068884202D9C1
:1016D000BF481930D6E7E06810B94FF43470E060C5
:1016E0000821E06802F06EFCE060E068B0F5987FE9
:1016F00002D2B748401EC5E702F034FF834612E02D
:10170000B7484068A0F12805B5494868FFF7C7FC0D
:1017100005F12801A848FFF7BBFCAF48E96802F0D3
:1017200025FE0020E860AE4800F0D4FD0028E7D098
:10173000A14800F0CFFD28B1DFF894A20AF10A0A0F
:1017400000BF41E09C484068A0F128059A494868DC
:10175000FFF7A5FC584602F00DFFD5F810800822CF
:101760009D48E16802F0F8FD06465EB902F0FAFE17
:10177000834605F128019048FFF78AFCDFF848A26C
:1017800000BF21E032464046E16802F050FF81464A
:10179000C5F80090A0682862EE60E068A8600020AC
:1017A000A861E8610220A880A088E88020686861BC
:1017B0004FF0FF30E8630020A864206968620020D1
:1017C0002865C7F800805DE7584602F0D3FE504612
:1017D00058E72DE9F04105460F46002639462846D0
:1017E000FFF746FF064616B13046BDE8F08128688F
:1017F000C0EBC00000EB40006E49096801EB8004BB
:1018000002F0B0FE8046A08820F00200A080A088F0
:1018100040F00400A080E18804F12800FEF7A2FE59
:10182000FEF7E1FE2838654948606E48006888B1D7
:101830006D48008870B9084600684968884209D038
:101840006948008830B9404602F094FE02F0CCFEB0
:101850000020CAE7404602F08DFE0020C5E710B523
:1018600086B01821684604F03CF95A4800904FF4BD
:10187000A06003905DA004901F20ADF804006946AD
:101880005D48FFF7A6FF044614B1204606B010BD20
:101890000020FBE74948006808B94D4870474748B1
:1018A00000680069FAE74548406808B94848704749
:1018B000424840680069FAE700204049096811B1D0
:1018C0003E490968486A704710B53C480068C068DE
:1018D0000068B0F1CC3F0ED000BFAFF2843003F00F
:1018E0001FFF36480068026934480068416A43A017
:1018F00003F016FF00BF3148406800682F4949686F
:10190000C96888420BD92D484068C0682B4949688E
:101910008968084429494968096888421DD200BF7E
:10192000AFF2CC3003F0FCFE244840680269234843
:101930004068416A3BA003F0F3FE00BF00BFAFF276
:10194000E83003F0EDFE1D484068C2681B4840685F
:1019500001683DA003F0E4FE00BF18484068008A1B
:1019600081B246480278801C20F81210134A52684F
:10197000516A821E1378163202EB4310202204F0C3
:1019800041F800213D480278163000EB4210C17743
:101990003A480078401CC0B2384908700A2806D17D
:1019A000002008700846407840F0800048703448B5
:1019B000006867E03C00002060000020400000203C
:1019C0004C000020E4000020000200037000002012
:1019D00007020002B3100008C809002000A0002080
:1019E00068000020780000204800002049646C65F1
:1019F000436F726530303000500000204355525222
:101A0000454E54207461736B2049443A2025733A43
:101A1000256420737461636B206F766572666C6FEA
:101A200077210A0048494748455354207461736B35
:101A30002049443A2025733A25642053502065728A
:101A4000726F72210A0000004849474845535420EC
:101A50007461736B20537461636B506F696E74654E
:101A6000723A203078257820546F704F6653746135
:101A7000636B3A20307825780A0000004801002086
:101A80008000002010B1FE480068804710BD10B5EE
:101A90004FF4AB71FB4804F002F80A20F949487092
:101AA000AFF2DB10F84908600020F549086010BD6E
:101AB0002DE9F04106464FF0FF37F44800688642B2
:101AC00002D1F348BDE8F081F2480068864202D1B5
:101AD000EF480D30F6E7F0480068864202D3EC4844
:101AE0000D38EFE702F03EFD8046C6EBC60000EB86
:101AF0004000EA49096801EB8004A58805F001006F
:101B000018B1E34F0A3F00BF74E005F0100028B1A0
:101B1000E348008810B10020E149088005F0040086
:101B200040B104F12800FEF73DFDA08820F004003C
:101B3000A08009E005F0080010B905F4005018B1C4
:101B400004F12800FFF7ABFA05F0600010B1204661
:101B5000FFF72BFBA08820F00200A080A08840F0B7
:101B60000100A0804FF0FF30E0630020A064FEF78A
:101B70003AFD2838CB494860207900F0100038B38E
:101B800004F12801C84800F09DFBC3480068C0EB81
:101B9000C00000EB4000C149096801EB8000C14969
:101BA0000860084600680661A08809688880BD4909
:101BB000E0680968C860BB49606A0968486201203A
:101BC000A080404602F0D6FC02F00EFD002079E72E
:101BD0000120A08004F12801B448FFF759FAB44865
:101BE000E16802F0C3FB0020E060404602F0C2FC66
:101BF000002067E7404602F0BDFC384662E770B55A
:101C00000546C5EBC50000EB4000A449096801EB9F
:101C100080046169206A88470020A1490880206902
:101C2000FFF746FF70BD2DE9F04105464FF0FF3745
:101C30000F2D03D996480D38BDE8F081C5EBC500DE
:101C400000EB40009549096801EB800402F08AFC32
:101C50008046A68806F0010018B18D4F0A3F00BFEC
:101C60002CE006F0020018B9894F0B3F00BF25E0B9
:101C7000A08820F00200A080A08842F22A410840FB
:101C8000B8B9A08840F00400A080E18804F12800E1
:101C9000FEF768FC8748006830B1404602F06AFCF5
:101CA00002F0A6FC0020C7E7FEF79DFC28387D491E
:101CB0004860404602F05EFC0020BDE7404602F06E
:101CC00059FC3846B8E72DE9F04105464FF0FF379B
:101CD0006E480068854202D16D48BDE8F0816D48CC
:101CE0000068854202D16A480D30F6E76A4800680C
:101CF000854202D366480D38EFE7C5EBC50000EB1F
:101D000040006649096801EB800402F02BFC804624
:101D1000A68806F0010018B15D4F0A3F00BF2FE012
:101D200006F0020018B15A4F0C3F00BF28E006F041
:101D3000100028B15A48008810B15F4F00BF1FE063
:101D400006F0040038B104F12800FEF72BFCA0884F
:101D500020F00400A080A08840F00200A08051483C
:101D600000680069A84206D1404602F003FC02F078
:101D70003FFC0020B1E7404602F0FCFB0020ACE74E
:101D8000404602F0F7FB3846A7E770B50024454807
:101D90000068006940490968884202D33C480D3810
:101DA00070BD40480068007900F0040008B90020C8
:101DB000F6E702F0D7FB05463A490968C888FEF7FE
:101DC00022FC0446012C17D93649096801F1280084
:101DD000FFF765F933480068808840F00400314916
:101DE000096888802F4A1268D1882E4A126802F149
:101DF0002800FEF7B7FB05E0284602F0BBFB2448AD
:101E0000001FCDE7284602F0B5FB02F0F1FB0020F1
:101E1000C6E770B5044602F039FD10B1264808380F
:101E200070BD1F48008810B11948801FF8E714B929
:101E3000FFF7ABFFF4E702F095FB05461949096887
:101E400001F12800FEF7AEFB16480068808820F0FC
:101E50000400144909688880124908682146FFF780
:101E600046F910480068808840F020000D49096854
:101E70008880284602F07EFB02F0BAFB0020CFE704
:101E800080000020480100207C000020500000203D
:101E900014020002540000204C0000203C000020EE
:101EA0004800002040000020680000206000002062
:101EB000C809002078000020150200032DE9F04138
:101EC0000446F7480068844203D34FF6FF70BDE82C
:101ED000F081C4EBC40000EB4000F249096801EB5B
:101EE000800502F03FFB0746287900F0010028B189
:101EF000384602F03FFB4FF6FF70E8E7EE883846C1
:101F000002F038FB3046E2E72DE9F04705460E4681
:101F10001F2E02DDE448BDE8F087E44800688542F2
:101F200002D1E1481130F6E7E1480068854202D16C
:101F3000DD481F30EFE7DA480068854202D3DA480F
:101F4000001DE8E7C5EBC50000EB4000D549096876
:101F500001EB800402F006FB8146B4F8048008F02F
:101F6000010028B1484602F005FBCF48C01DD2E76A
:101F700008F0040797B104F12800FEF713FBA088CE
:101F800020F00400A080E680A08840F00400A0803B
:101F9000E18804F12800FEF7E5FA00E0E680484613
:101FA00002F0E8FA0FB102F023FB0020B3E770B5AE
:101FB0000446C049096808692146FFF7A5FF0546A0
:101FC000284670BD2DE9F04107460E461546B94832
:101FD000046804F12800FEF7E5FAA08820F0040068
:101FE000A08004F12808A0883043A08041463846EC
:101FF00000F068F9681C38B1A08840F04000A0806B
:1020000029462046FFF773F8BDE8F08170B5044615
:102010000D4604F12800FFF742F8A088A843A080ED
:10202000207900F0400030B12046FFF7BEF8A088CC
:1020300020F04000A080207900F0020040B9A08884
:1020400040F00400A080E18804F12800FEF78AFA3D
:1020500070BD10B502F086FA044697480088401C0F
:1020600095490880204602F085FA10BD10B502F0AF
:1020700079FA04469048008800280DDD8E480088D3
:10208000401E8D4908800846008828B9204602F085
:1020900071FA02F0ADFA10BD204602F06BFA00BFF3
:1020A000F9E72DE9F04107460C461CB97E48801E31
:1020B000BDE8F0817A480068874202D37A48001D63
:1020C000F6E7C7EBC70000EB40007649096801EB73
:1020D000800502F047FA8046287900F0010028B117
:1020E000404602F047FA7048C01DE1E72868606585
:1020F000A888A084E888E084A868A064E868E06410
:10210000D5E91012E86BC4E90F12A063A86C6064F3
:10211000A86910B1A869C08800E014202063E869AC
:1021200010B1E869406800E00F206063A869A06210
:10213000E869E06227621F222046696A03F0F8FC22
:102140000020E077D5E90210084420F00700206560
:10215000D4E91401401AA065E06C0068B0F1CC3FEE
:1021600012D1E06C061D00E0361D606DB04203D94F
:102170003068B0F1CA3FF7D0A868E16C711A401A14
:10218000E0650020206604E04FF0FF30E0650120AC
:102190002066404602F0EEF9002089E72DE9F04183
:1021A00004460D461DB94048801EBDE8F0813C48FC
:1021B0000068844202D33C48001DF6E7C4EBC4002B
:1021C00000EB40003749096801EB800602F0CAF9CC
:1021D0000746307900F0010028B1384602F0CAF90C
:1021E0003148C01DE1E7B0882860384602F0C2F9E6
:1021F0000020DAE770B504460D460A2C00D30A3CED
:1022000015B92948801E70BD02F0ACF906462B486E
:1022100030F8140028602948143000EB44112022C3
:10222000281D03F0EFFB304602F0A4F90020EAE796
:1022300010B5FFF7C4F80446204610BD20480068DA
:1022400070471C48406810B91748001D704719486E
:1022500040680069FAE770B5044611480068844296
:1022600001D3002070BDC4EBC40000EB40000D4959
:10227000096801EB800502F075F90646287900F03F
:10228000010020B1304602F075F90020EAE730463F
:1022900002F070F9686AE5E740600060704700008E
:1022A0004C0000203C0000200302000250000020EF
:1022B0005400002040000020480000204A01002077
:1022C0007800002070B504460D4629462068FEF7C8
:1022D000DFFE70BD01464868884201D10120704789
:1022E0000020FCE710B50948D0E900305A1C40F145
:1022F00000000649C1E9002000F012F8FEF776FF61
:10230000FEF7C6FB10BD0248006870478800002039
:102310009C0000200020124908600A20C8807047F5
:1023200010B50F4800680F49096888420BD00D4866
:1023300000680B4908600846C1880B4800880844BB
:10234000401E07498880064881880748008880B277
:10235000814204D1002002490860FFF716FD10BD3C
:10236000A4000020400000208800002042684A604D
:102370000860426811604160704770B5E14800F044
:10238000B5F94FF4B471E048006801F0D0FFDF49BF
:1023900008600846006808B9DD4870BD002411E0F7
:1023A00004EB4400D949096801EBC0056C600020CA
:1023B000287005F10806D34908683146FFF7D6FFB3
:1023C00000BF641C0F2CEBD30020E6E72DE9F84397
:1023D00006461EB9CE48801CBDE8F88302F0C2F85C
:1023E0008146C84800F085F940B1484602F0C2F87D
:1023F00000BFC74FFF1CDFF81C831FE0C1484468C3
:1024000000BFD4E900010860D4E900104860002052
:102410006060206000BFA4F108056880012028707A
:102420000020A882286105F1080000F05FF96868C3
:102430003060484602F09EF80020CDE700BF002043
:1024400003463A4641460090B3A001F0DFFD38460E
:10245000C2E72DE9F84307460F2F04D300BFAC4D68
:102460006D1CAC4E2EE007EB4700A849096801EB54
:10247000C00402F077F88046207838B9404602F070
:1024800079F800BFA24D6D1CA24E1BE004F10800BC
:1024900000F02FF908B1608838B1404602F06AF8C0
:1024A00000BF9B4D09359B4E0CE004F10801954897
:1024B000FFF75CFF00202070404602F05BF8002030
:1024C000BDE8F88300BF002003462A46314600904D
:1024D00091A001F09BFD2846F2E72DE9F84307465D
:1024E00088460F2F0DD300BF00200346884A521C98
:1024F0008849009088A001F089FD8548401CBDE80E
:10250000F88307EB47008149096801EBC00402F03A
:1025100029F88146207878B9484602F02BF800BFA8
:10252000002003467A4A521C7A4900907AA001F0B2
:102530006DFD7748401CE2E702F0A8F928B1484653
:1025400002F018F87248401DD9E77848056860889D
:1025500050B96088401C60802561E888A0824846A8
:1025600002F008F80020CAE72069A84207D1608875
:10257000401C6080484601F0FDFF0020BFE7B8F135
:10258000000F05D1484601F0F5FF6148001DB6E790
:102590006748008850B15E4EB61D00BF65A003F0CD
:1025A000BFF866A003F0BCF800BF27E0EC6120692B
:1025B000C088E988884203DDE9882069FEF77BFD51
:1025C0004246082104F10800FFF7FCFC484601F0F0
:1025D000D1FF02F00DF8287900F0400060B101F061
:1025E000C1FF8146A88820F04000A880484601F03D
:1025F000C1FF474EF61D05E0002080E7484601F088
:10260000B9FF00BF00BF0020034632464149009099
:1026100041A001F0FBFC304671E72DE9F843064686
:1026200006EB46003949096801EBC00401F09AFF46
:1026300080460F2E01D2207880B9404601F09AFFE3
:1026400000BF00200346324A521C3249009032A09B
:1026500001F0DCFC2E48401CBDE8F88333480768D5
:10266000608810B12069B8420FD0404601F082FF67
:1026700000BF00200346264A521C2649009026A08F
:1026800001F0C4FC2248401CE6E76088401E80B28E
:10269000608020B1404601F06DFF0020DCE720693A
:1026A000C088A18A884203D0A18A2069FEF703FD71
:1026B00004F1080000F01DF898B9E068A0F12805C1
:1026C000012060802561E888A0820020E86108215F
:1026D0002846FFF79BFC404601F04CFF01F088FFC5
:1026E00002E0404601F046FF0020B5E74060006090
:1026F000704701464868884201D101207047002098
:10270000FCE70000B0000020E4000020AC00002046
:10271000001D0002F8C3B2A16F735F756E73706520
:1027200063696669635F66696C650000400000204C
:10273000480000205B4552525D2000002121214CC1
:102740004F535F4552524E4F5F4D55585F50454E67
:10275000445F494E5F4C4F434B2121210A0000004A
:1027600042684A600860426811604160704770B515
:102770004FF4DC71FA48006801F0D9FDF9490860AE
:102780000846006808B9F84870BD4FF4DC71F54898
:10279000006803F0A6F9F54800F00CFC002412E0F4
:1027A00004EB440000EBC400EE49096801EB80052E
:1027B0006C8105F11C06ED4908683146FFF7D0FF32
:1027C00000BF601C84B20A2CEADB0020DCE72DE9A4
:1027D000F05F0E469046DDF8289009F104001FFADC
:1027E00080FAB8F1000F03D1DF480B30BDE8F09F4D
:1027F0004FF6FB70814502DDDB48801CF6E716B121
:10280000B9F1000F02D1D8480C30EFE706FB0AF10E
:10281000D348006801F08BFD074617B9D248401C29
:10282000E4E701F09FFE8346D04800F0C6FB50B1BC
:10283000584601F09FFE3946C948006801F096FDF0
:10284000C948C01CD2E7C948456800BFD5E90001A6
:102850000860D5E90010486000206860286000BF6B
:10286000A5F11C04E680A4F808A027600120A08040
:10287000002020826682A081E08104F1140000F033
:1028800099FB04F11C0000F095FB04F1240000F01A
:1028900091FB584601F06EFE6089C8F800000020E8
:1028A000A4E72DE9F04105460E4614461F460A2DC1
:1028B00003D3AD480D30BDE8F08106B114B9AA4884
:1028C0000E30F8E7206810B9A7480F30F3E72FB1B2
:1028D00001F0DCFF10B1A4481730ECE70020EAE774
:1028E0002DE9F04104460D4616461F460A2C03D337
:1028F0009D480D30BDE8F08115B99B481130F9E7CE
:10290000306810B998481230F4E72FB101F0BEFFDB
:1029100010B195480830EDE70020EBE72DE9F047CE
:1029200004460E46174698464FF00009CA4606F080
:10293000030020B1012810D0032828D119E0B4F8F1
:102940000CA0A089401CE188884202D10020A0810F
:1029500002E0A089401CA08123E0A08918B9E0888A
:10296000401EA08102E0A089401EA081B4F80CA006
:1029700017E0B4F80EA0E089401CE188884202D13B
:102980000020E08102E0E089401CE08109E000BF16
:1029900077A002F0C5FE78A002F0C2FE00BFBDE83D
:1029A000F08700BF218920680AFB010506F00400BA
:1029B00040B106F0010010B9286838601DE03868A1
:1029C00028601AE006F0010058B92089284450F820
:1029D000049C4A462946384603F014F8C8F800908B
:1029E0000BE039462846D8F8002003F00BF8208980
:1029F0002844D8F8001040F8041C00BFCFE72DE9A8
:102A0000FF4F83B081460E469846DDF840A0002077
:102A1000019006F0010501F0A5FD029009EB4900C7
:102A200000EBC9004F49096801EB8004A08818B980
:102A30004D4809300190B9E006F0010048B92089FD
:102A4000001FD8F80010814203D247481E30019081
:102A5000ACE006F0010048B12089001FD8F8001052
:102A6000814203D94048143001909FE004F11000E6
:102A700030F8150090BBBAF1000F09D106F0010043
:102A800010B939481C3001E03748153001908DE00D
:102A90004148008818B13448401D019086E03F4805
:102AA000076804F1140101EBC50052464FF40051D0
:102AB000FFF788FA029801F05DFD01F099FD01F041
:102AC00051FD0290387900F0400090B1B88820F0B4
:102AD0004000B8802448801D019067E0FFE704F1C2
:102AE000100030F81500401E81B204F1100020F8EB
:102AF0001510434631462046059AFFF70FFF0DB9E2
:102B0000012200E0002204F1140101EBC20000F0F8
:102B100054FAC0B90DB9012100E0002104F11400FC
:102B200000EBC1004068A0F1280B4FF4005158465B
:102B3000FFF76CFA029801F01DFD01F059FD00202D
:102B400007B0BDE8F08F0DB9012100E0002104F1CC
:102B5000100030F81100401C81B20DBB012220E0B2
:102B6000E4000020B800002001060002BC000020A4
:102B70005B4552525D200000696E76616C6964208D
:102B80007175657565206F70657261746520747903
:102B90007065210A0000000048000020400000206D
:102BA000002204F1100020F8121000BF029801F07A
:102BB000E1FC0198C4E72DE9F84381460C4615462F
:102BC0001E4633462A4621464846FFF76AFE074618
:102BD00017B13846BDE8F8834FF000082B4622466F
:102BE000414648460096FFF70AFFF3E72DE9FF410B
:102BF00082B080460C461D462B4604AA214640461C
:102C0000FFF76EFE06461EB1304606B0BDE8F08105
:102C1000012704AB2246394640460095FFF7EFFEF8
:102C2000F3E72DE9FF4182B080460C461D462B4656
:102C300004AA21464046FFF753FE06461EB1304621
:102C400006B0BDE8F081032704AB22463946404672
:102C50000095FFF7D4FEF3E72DE9FF4182B08046EF
:102C60000C461D462B4604AA21464046FFF719FE96
:102C700006461EB1304606B0BDE8F081042704AB1D
:102C80002246394640460095FFF7B9FEF3E7FFB507
:102C900081B007461C4604200390234603AA384609
:102CA0000299FFF71DFE054615B1284605B0F0BD97
:102CB000072603AB02AA314638460094FFF79FFE71
:102CC000F4E77FB5044615461E46019810B9BF4883
:102CD00004B070BD042533462A4601A92046FFF7FB
:102CE00085FFF5E72DE9F04705460E4617464FF0FC
:102CF0000009C84600240A2D02D30020BDE8F08751
:102D00000EB90020FAE727B101F0C0FD08B100209C
:102D1000F4E701F027FC824605EB450000EBC50017
:102D2000AB49096801EB8008B8F8040000B927E056
:102D3000304601F0B4F88146B9F1000F1FD107B950
:102D40001EE0A44804683A464FF4005108F12400FC
:102D5000FFF738F9504601F00DFC01F049FC01F095
:102D600001FC8246207900F0400020B1A08820F0CC
:102D70004000A08004E0D4F850900020206500BFFF
:102D8000504601F0F7FB4846B8E72DE9F047054605
:102D90000E4617464FF000090024A0460A2D03D323
:102DA0008A48C01DBDE8F08716B988480830F9E7A1
:102DB00001F0D8FB82463946304601F091F828B13F
:102DC000504601F0D7FB81480930EBE705EB4500A1
:102DD00000EBC5007E49096801EB8004A08828B992
:102DE000504601F0C7FB79480838DBE704F12400BE
:102DF00000F0E3F898B9A06AA0F128084FF4005158
:102E00004046FFF703F9304601F049F88146C8F81B
:102E10005090504601F0AEFB01F0EAFB02E0504654
:102E200001F0A8FB0020BDE72DE9F0410646002790
:102E30000A2E03D365480D38BDE8F08101F092FBFE
:102E4000804606EB460000EBC6006149096801EBCD
:102E50008004A08810B95D4D083D34E004F11400F1
:102E600000F0ABF810B9594D0A3D2CE004F11C00FC
:102E700000F0A3F810B9554D0A3D24E004F12400F8
:102E800000F09BF810B9514D0A3D1CE0608A218A80
:102E90000844E188884202D04C4DED1F13E02768BA
:102EA00000202060A08004F11C014B48FFF758FC73
:102EB000404601F05FFB39464848006801F056FA89
:102EC00005462846B8E7404601F054FB2846B3E7DC
:102ED0002DE9F04707460C464FF000081CB93B4867
:102EE000401DBDE8F0870A2F02D33848001FF8E7DD
:102EF0001C21204602F0F5FD01F034FB814607EB72
:102F0000470000EBC7003249096801EB8005A8883B
:102F100020B9DFF8B880A8F1080846E02760E88803
:102F2000A0802889E080A8892081E8896081288A9A
:102F3000E081688AA081A869A0F1280608E0327CB7
:102F400001219140206908432061F06AA0F1280620
:102F500006F1280005F114018842F0D1286AA0F199
:102F6000280608E0327C01219140606908436061D5
:102F7000F06AA0F1280606F1280105F11C00814243
:102F8000F0D1A86AA0F1280608E0327C0121914026
:102F9000A0690843A061F06AA0F1280606F12800A4
:102FA00005F124018842F0D100BF484601F0E2FA61
:102FB000404696E740600060704701464868884296
:102FC00001D1012070470020FCE70000120600023A
:102FD000B800002040000020BC000020E4000020D9
:102FE00042684A600860426811604160704770B58D
:102FF000D44800F09CF94FF4A071D348006801F068
:1030000096F9D24908600846006808B9D04870BDF2
:10301000002410E0CD48006800EB0415EC8000208F
:10302000288005F10806C74908683146FFF7D8FF30
:1030300000BF601C84B2142CECDB0020E7E72DE914
:10304000F84F074688469146B9F1000F03D1C048B2
:10305000801CBDE8F88F474505DD00BFBC4E083633
:10306000DFF8F0A22FE001F07DFA8346B54800F0CA
:1030700061F940B1584601F07DFA00BFB44EF61C2C
:10308000DFF8D0A21FE0AF48446800BFD4E90001D8
:103090000860D4E90010486000206060206000BF34
:1030A000A4F108056F8001202880A5F8048005F1AF
:1030B000080000F03CF9E888C9F80000584601F023
:1030C00059FA0020C5E700BF0020034632465146AA
:1030D0000090A1A000F09AFF3046BAE770B505460F
:1030E0000C4622464FF6FF712846FFF7A8FF70BD39
:1030F00070B505460C46224601212846FFF79FFF82
:1031000070BD2DE9F8430746142F04D300BF904D3E
:103110006D1C904E2AE08D48006800EB071401F00A
:1031200021FA8046208838B9404601F023FA00BFD2
:10313000874D6D1C874E19E004F1080000F0FAF885
:1031400038B9404601F016FA00BF814D0935814E6D
:103150000CE004F108017B48FFF742FF00202080CB
:10316000404601F007FA0020BDE8F88300BF0020C8
:1031700003462A463146009077A000F047FF2846D4
:10318000F2E72DE9F84307468846142F0DD300BF18
:10319000002003466E4A521C6E4900906EA000F05B
:1031A00035FF6B48401CBDE8F8836848006800EBB9
:1031B000071401F0D7F98146208878B9484601F014
:1031C000D9F900BF00200346614A521C61490090B2
:1031D00061A000F01BFF5E48401CE4E76088002807
:1031E00007DD6088401E6080484601F0C3F900207A
:1031F000D9E7B8F1000F02D1554D2D1D39E001F08E
:1032000045FB50B1524D6D1D00BF58A002F088FA29
:1032100058A002F085FA00BF2BE05F48008850B14B
:103220004B4DAD1D00BF51A002F07AFA5BA002F039
:1032300077FA00BF1DE062480668B4614246082183
:1032400004F10800FEF7BEFE484601F093F901F0D4
:10325000CFF9307900F0400048B101F083F98146A0
:10326000B08820F04000B080394DED1D01E0002015
:1032700099E7484601F07EF900BF002003462A4640
:103280003449009034A000F0C1FE28468BE7F8B521
:1032900005462E48006800EB0514142D02D32C4877
:1032A000401CF8BD01F05EF90746208878B9384621
:1032B00001F060F900BF00200346254A521C254951
:1032C000009025A000F0A2FE2148401CE9E7A0885C
:1032D000618888420FD1384601F04CF900BF0020C8
:1032E00003461B4A08321B4900901BA000F08EFECB
:1032F00017480830D5E704F1080000F01BF870B952
:10330000E068A0F128060020B06108213046FEF7F1
:103310007DFE384601F02EF901F06AF905E060887B
:10332000401C6080384601F025F90020B9E7406074
:103330000060704701464868884201D1012070470B
:103340000020FCE7C4000020E4000020CC000020A6
:1033500000070002F8C3B2A16F735F756E737065EA
:1033600063696669635F66696C6500005B4552521C
:103370005D2000002121214C4F535F4552524E4F9A
:103380005F53454D5F50454E445F494E5445525240
:103390002121210A00000000480000202121214CA9
:1033A0004F535F4552524E4F5F53454D5F50454E10
:1033B000445F494E5F4C4F434B2121210A000000DE
:1033C0004000002002465068884201D1002070472A
:1033D000486820F0404301F108001844F7E72DE960
:1033E000F04105460E462F460FB1582E02D8002058
:1033F000BDE8F0813146284602F051FBBE6005F180
:1034000050043C607C60606820F080406060002078
:103410002060A6F15800616860F31D016160012021
:10342000E6E770B504460025002223460BB90120CB
:1034300070BD09B90120FBE75A6809E05068C0F384
:10344000807020B1506820F0404008300544126878
:10345000002AF3D19868A84201D20120E8E74D6024
:1034600098680860D1E90006801B8860C148006840
:10347000C860C148006808610020D9E730B585B050
:10348000044625461421684602F02BFB6946204677
:10349000FFF7C7FF012801D105B030BD00BFFBE732
:1034A0002DE9F05F81460E460024A2464F4617B92B
:1034B0000020BDE8F09F01F055F88346F01C20F095
:1034C00003067D6819E06868C0F38070A0B9686879
:1034D00020F04040B0420FD33CB1606820F0404043
:1034E000696821F04041884206DD2C46606820F082
:1034F0004040B04200D133E02D68002DE3D14CB9FB
:1035000000BF9EA002F00CF931469EA002F008F91F
:1035100000BF48E0606820F04040801B08281ED9AA
:1035200004F108008519686820F0804068606068D0
:10353000801B0838696860F31D0169602C602146B2
:103540003846FFF73FFF8046B8F1000F01D17D609C
:1035500001E0C8F80050606866F31D00606000BFBD
:10356000606820F000406060606820F0804000F1FA
:103570008040606004F1080A8E48016806F1080086
:1035800008448C490860084600688B4909688842ED
:1035900003D9884800688849086076480068401C5C
:1035A0007449086000BF7868406820F04040B0F57A
:1035B000806F02DA3846FFF761FF584600F0DAFF05
:1035C000504676E72DE9F04780460F461446002521
:1035D000B8F1000F05D027B1042C02D3601E2040A3
:1035E00010B10020BDE8F0873819A0F10409494660
:1035F0004046FFF755FF054675B1601E2844611E21
:1036000020EA0106B54200D107E0A6EB050A4AF020
:10361000004A46F804AC354600BF2846E2E72DE9EB
:10362000F05F81460E464FF0010A4D4605B116B9CE
:103630000120BDE8F09F56F8048C08F0004018B156
:1036400028F00048A6EB08062868B04203D868684E
:103650000830B0420AD200BF48A002F061F83146FB
:1036600056A002F05DF800BF0020E2E700F07AFF0C
:103670008346A6F108046068C0F3807088B12868AA
:10368000A04211D02068296888420AD3216868685E
:103690000830814205D828462168FFF793FEA042F2
:1036A00002D04FF0000A43E0606820F08040606084
:1036B000606820F0404008303E490968884208D8D8
:1036C000606820F0404008303A490968081A3949D2
:1036D000086000E02468206828B120684068C0F3D2
:1036E00080700028F6D00BE06168786808300144EB
:1036F000606861F31D0060606868B84200D16C606A
:1037000021462846FFF75EFE071E04D07868C0F306
:1037100080700028E8D021462846FFF753FE071E98
:1037200000D03C6014480068401C1349086000BF8A
:10373000584600F01FFF50467BE71F48006870475F
:1037400030B5024600230024002115460DB90120A2
:1037500030BD69680AE04868C0F3807028B94868DD
:1037600020F040449C4200D9234609680029F2D148
:103770001846EDE7D0000020D40000205B455252EF
:103780005D20000074686572652773206E6F742079
:10379000656E6F7567682077686F6C6520746F2041
:1037A000616C6C6F63202578204279746573210AFF
:1037B00000000000D8000020DC00002030782578D0
:1037C000206F7574206F662072616E6765210A0034
:1037D00070B505460C462C6004F11F00C108281D79
:1037E00002F07FF904F01F0040B104F01F014FF018
:1037F000FF3088406209291D41F8220070BD10B5D4
:1038000002461068884201D8002010BD4B09101DE7
:1038100050F8230001F01F040123A340184008B111
:103820000120F2E70020F0E730B54C09031D03EB5F
:10383000840203688B4200D830BD01F01F050124CB
:10384000AC401368A343136000BFF5E7F0B503462F
:1038500018681F304609191D0025002219E0086864
:10386000401C00B913E00868C44301E064086D1C03
:10387000002CFBD16F1E4FF0010C0CFA07FC0868FE
:1038800040EA0C00086005EB4210401EF0BD521CDF
:10389000091DB242E3D34FF0FF30F7E710B50246FF
:1038A000002901DA084610BD21F01F0000F11F03B6
:1038B0001068401E984201D21068431E01F01F009C
:1038C0001C1A2046EFE710B50146002200BF06E0B3
:1038D000081D50F8220008B1002010BD521C0868D5
:1038E000B2EB501FF4D3087800F01F0060B1081D40
:1038F00050F822000B7803F01F044FF0FF33A34071
:10390000984308B10020E8E70120E6E72DE9F047F9
:1039100081460E4615461F4607F11F00042101EBA4
:10392000D00808EB0500401E691E20EA0108701946
:10393000401E20EA010606FB07FA08F10C0000EB26
:103940000A014846FFF7ACFD044654B1266004F175
:103950000C00A060A068404460603946A068FFF792
:1039600037FF2046BDE8F08770B504460D4629466E
:103970002046FFF754FE70BD30B50446A068FFF73F
:1039800065FF0546002D01DA002030BDD4E90010A6
:1039900001FB0500F9E72DE9F04104460D46A84674
:1039A0006068A8EB00062068B6FBF0F72068B6FB5D
:1039B000F0F100FB116048B9A06802F0F0F9B842DC
:1039C00004D93946A068FFF71AFF10B90020BDE8F6
:1039D000F0813946A068FFF727FF0120F7E730B5EF
:1039E00004460D462946A068FFF709FF08B90020E4
:1039F00030BDD4E9001001FB0500F9E70246D2E929
:103A0000003003FB010070472DE9F04104460D46EC
:103A1000A8466068A8EB00072068B7FBF0F62068AE
:103A2000B7FBF0F100FB117048B9A06802F0B7F9DC
:103A3000B04204D93146A068FFF7E1FE18B94FF053
:103A4000FF30BDE8F0813046FBE710B50446A068C2
:103A500002F0A5F910BD10B50446A068FFF733FFCA
:103A600010BDF0B50546AE680027002406E02146EB
:103A70003046FFF7C4FE00B17F1C641C3068A042D2
:103A8000F5D83846F0BD2DE9F04104460D461646FE
:103A90001F4620682860A06802F081F93060204647
:103AA000FFF7DFFF3860BDE8F0812DE9F041044603
:103AB0000D46A8466068A8EB00062068B6FBF0F744
:103AC0002068B6FBF0F100FB116048B9A06802F075
:103AD00066F9B84204D93946A068FFF790FE10B9DC
:103AE0000020BDE8F0810120FBE702464DF6DE60D4
:103AF000108091700020D070101D70472DE9F047A4
:103B00008146484600F060FB054600240027002659
:103B1000A04600BF20E0102000FA04F64001B0FBF0
:103B2000F6F805EB0410066005EB0410C0F80480FD
:103B3000002005EB0411886005EB0410C06808B193
:103B40007F1C08E043460422311D4846FFF7DEFE95
:103B500005EB0411C860641C042CDCD317B90120E8
:103B6000BDE8F0870020FBE72DE9F04780460E46D0
:103B70000027404600F028FB0546B9460024802E69
:103B800002D90020BDE8F087002439E005EB0410DD
:103B90000068B04233D300F0E5FC824605EB041028
:103BA000806805EB04114968884204D3504600F050
:103BB000E1FC0020E6E705EB0410C06820B95046A0
:103BC00000F0D8FC0020DDE705EB0419D9F80C0063
:103BD000FFF7D2FE07466FB105EB041001683846C7
:103BE000FFF783FF074605EB04108068401C05EBD8
:103BF00004118860504600F0BDFC3846C2E7641CE2
:103C0000042CC3D30020BDE72DE9F05F81460F46A9
:103C1000484600F0D9FA05464FF0000A00243E1F3E
:103C200030884DF6DE61884202D00020BDE8F09F6A
:103C300000241FE0B07805EB04110968884218D809
:103C400000F090FC834605EB04183146D8F80C00D0
:103C5000FFF7A1FE012807D1824605EB041080681A
:103C6000401E05EB04118860584600F083FC504666
:103C7000DCE7641C042CDDD30020D7E72DE9F047F6
:103C8000074600250FB9BDE8F087384600F09CFADA
:103C9000054600241CE0102000FA04F64001B0FBA9
:103CA000F6F905EB0410066005EB0410C0F804906B
:103CB00005EB0410C06850B105EB04183846D8F87D
:103CC0000C10FFF751FE002005EB0411C860641CC6
:103CD000042CE0D300BFD6E72DE9F05F81460F4604
:103CE000484600F071FA05464FF0FF3A00243E1FA7
:103CF00030884DF6DE61884203D1B078296B884266
:103D000002D95046BDE8F09F00F02CFC8346002409
:103D10000DE005EB04183146D8F80C00FFF7C5FE9E
:103D2000012803D105EB0410D0F800A0641C042C7A
:103D3000EFD3584600F01EFC5046E3E72DE9F34F61
:103D400083B00C46002600200290019000900027CE
:103D500080468246834600250CB1039818B901209D
:103D600005B0BDE8F08F039800F02EFA0646002556
:103D70001DE006EB05196B4601AA02A9D9F80C0053
:103D8000FFF781FE0299009800FB0177DDE9010150
:103D900000FB018806EB05108068824406EB0510E5
:103DA000406806EB05118968401A83446D1C042D98
:103DB000DFD3B84501D20120D2E7C4F800806760A4
:103DC000D4E90001401AA060C4F80CA0C4F810B0F7
:103DD0000020C5E7FEB50646304600F0F5F9074677
:103DE00000200290019000900025032510E007EBD1
:103DF0000514E06858B16B4601AA02A9E068FFF714
:103E000042FEDDE90001884201D00298FEBD6D1E30
:103E1000002DECDA0020F9E72DE9F04706460F46C1
:103E200090463446002526B1B8F1000F01D0102F7E
:103E300002D20120BDE8F08706F0030008B101209E
:103E4000F8E700F08FFB824608F1070020F003003E
:103E50002060A7F110002168B0FBF1F06060002045
:103E6000A060606820B9504600F084FB0120E1E7C3
:103E700004F11005E5604FF0000905E020682844D2
:103E800028602D6809F101096068401E4845F5D891
:103E900000202860504600F06DFB0020CAE72DE9A5
:103EA000F041064634460027002516B90020BDE83B
:103EB000F08100F057FB804604F10C07386838B1F8
:103EC0003D68286838603E482860A068401CA060B3
:103ED000404600F04FFB0DB90020E8E7281DE6E75B
:103EE0002DE9F04705460E462C46012705B116B9C7
:103EF0000120BDE8F08700F035FB804600BF311F90
:103F000020460A46D0F800C0BCF1000F02D14FF0A5
:103F1000010C25E000F1100CA2EB0C03D0F800C05E
:103F2000B3FBFCF90CFB193CBCF1000F02D04FF0C5
:103F3000010C15E0D0F800C0B3FBFCFCD0F80490F5
:103F4000CC4502D34FF0010C0AE0DFF87490D2F8B0
:103F500000C0CC4502D04FF0010C01E04FF0000C46
:103F6000BCF1000F00D007E0E0680860E160A068E5
:103F7000401EA060002700BF00BF404600F0FAFAD4
:103F80003846B6E770B504460D46264604B105B975
:103F900070BD3068011F284601F081FD00BFF7E7C2
:103FA00010B5044614B109B102B10BB9012010BD1E
:103FB00060680860A0681060206818600020F6E75C
:103FC000A55A5AA502465018401E904204D95018CE
:103FD000401E4B1E98437047481E22EA0000FAE735
:103FE00070B50446002500F051FC00B170BD0CB95D
:103FF000002505E02046FCF7A7FF054605B9012589
:104000002846FDF706FF00BFF0E700002DE9F84362
:1040100005460C4616461F46DDF820800A48006813
:1040200048B10948CDF800803B4632462146D0F8D9
:1040300000C02846E0470548844202D00020BDE881
:10404000F8830020FBE70000E0000020F8C3B2A1E5
:104050003C48006840F470003A490860704700F03E
:1040600081FA00BFFEE7102037490860704710B59D
:1040700000F038FB04464CB100BF34A001F050FB07
:1040800034A001F04DFB00BF204610BD00F046FA01
:104090002046FAE710B5FFF7E6FF334833490860DA
:1040A00000F0FDF8044654B100BF28A001F038FB31
:1040B00021462FA001F034FB00BF204610BDFDF7C4
:1040C000F3F904464CB100BF20A001F029FB2FA05A
:1040D00001F026FB00BF2046F0E7FDF7D8FCFEF715
:1040E00086FF04460CB12046E8E7FEF746F9044691
:1040F0000CB12046E2E7FEF73AFB04464CB100BFA4
:1041000012A001F00DFB26A001F00AFB00BF204623
:10411000D4E7FCF7DFFA04464CB100BF0BA001F076
:10412000FFFA24A001F0FCFA00BF2046C6E7FEF724
:10413000F1F8FDF794FB04460CB12046BEE70020E1
:10414000BCE7000088ED00E04C0000205B455252C7
:104150005D2000006F735469636B53746172742047
:104160006572726F720A0000C8090020E400002026
:104170006F734D656D53797374656D496E69742005
:104180006572726F722025640A0000006F735461BB
:10419000736B496E6974206572726F720A00000059
:1041A0006F735175657565496E6974206572726FBC
:1041B000720A00006F735377546D72496E697420F0
:1041C0006572726F720A0000014601F110007047BB
:1041D0002DE9F84F04460E464FF00108BE48056829
:1041E000D0F800900CB1502E02D80120BDE8F88F15
:1041F00004F0030008B10120F8E700F0B3F98246AB
:1042000020E0A8684719AC4202D8A019A84204D8F7
:10421000BC4215D2A019B84212D300BFAFA001F022
:104220007FFAA8682844A2192B4621460090ADA029
:1042300001F076FA00BF504600F09CF90120D5E766
:10424000A946ED68002DDCD131462046FFF7C7F8BE
:104250008046B8F1000F04D1504600F08BF90120E0
:10426000C4E7B6F5805F0BD32046FFF747FC8046D6
:10427000B8F1000F04D1504600F07CF90120B5E7F9
:104280009548006810B99448046001E0C9F80C40F2
:104290000020E060504600F06DF90020A6E710B560
:1042A00000249C489C4A111AFFF792FF04462046BE
:1042B00010BD2DE9F0410546012715B93846BDE886
:1042C000F08100F04FF9804600BF834800688542C6
:1042D00006D181480068C0687F49086000270FE068
:1042E0007D480668046807E0A54203D1E068F060F5
:1042F000002703E02646E468002CF5D100BF00BF8C
:1043000000BF2846FFF7BAFC404600F033F93846B4
:10431000D5E770B570480468002504E06D1C2046A0
:10432000FFF7ACF8E468002CF8D1284670BD70B5F2
:1043300004460D46002604B10DB9304670BD29462D
:104340002046FFF711FC064626B929462046FFF70E
:10435000A7F806463046F1E770B504460D46164606
:10436000324629462046FFF72DF970BD70B5044648
:104370000D46002604B10DB9012070BD2946204626
:10438000FFF742FC0646012E04D029462046FFF7DF
:1043900046F90646012E01D00120EEE70020ECE7A9
:1043A0002DE9F84F81460D4614460027BA464FF0D6
:1043B000FF38BB46002C02DA0020BDE8F88F00F081
:1043C000D1F800902DB124B929464846FFF7CEFF19
:1043D00038E02DB921464846FFF7A9FF074631E0EE
:1043E00029464846FFF778FC804608F1010030B1C5
:1043F000444501D9404600E02046824613E055F886
:1044000004BC0BF0004008B10020D6E7A5F1080677
:10441000706820F04040A04203D2706820F0404015
:1044200000E02046824621464846FFF780FF0746C7
:1044300047B152462946384601F0E4FA2946484633
:10444000FFF794FF009800F095F83846B5E770B58F
:104450008AB006460C4605A93046FEF7E2FF05463F
:1044600015B101200AB070BD059820600698606003
:104470000798A0600898E060099820616946304676
:10448000FFF75CFC05460DB10120EBE705982060C5
:1044900002990698401A6060029907980844A06043
:1044A000039908980844E060049909980844206139
:1044B0000020D7E770B504462046FFF741F90546CE
:1044C00000262046FFF786FC0646B54201D928465D
:1044D00070BD3046FCE70000E80000205B4552520A
:1044E0005D200000706F6F6C205B25702C20307891
:1044F00025782920636F6E666C6963742077697410
:104500006820706F6F6C205B25702C2030782578C8
:10451000290A0000C809002000A0002072B62C481B
:104520002C49026841EA020101602B484FF0010169
:1045300001602A484168016001688A884FF01003D1
:1045400042EA03028A80D1F800C00CF1240CBCE8D6
:10455000FF008CF309884FF0020C8CF31488AE46F0
:1045600062B63047EFF3108072B67047EFF31080F9
:1045700062B6704780F31088704719484FF0805139
:1045800001607047EFF3108C72B6164A126822B1C0
:104590002DE900509047BDE80050EFF3098020E975
:1045A000F01F0E4D4FF010082E683060B78827EAD4
:1045B0000807B78068682860878847EA0807878007
:1045C0000168B1E8F01F81F309888CF31088704707
:1045D00020ED00E00000FFFF7800002040000020F8
:1045E00004ED00E07C00002010B5FFF7C6FF10BD11
:1045F00010B5FFF7B7FF0446FBF7F5FF283836493B
:104600004860084600684968884208D033480088F6
:1046100028B92046FFF7AEFFFFF7AFFF10BD2046D9
:10462000FFF7A8FF00BFF9E772B600BFFEE72DE96C
:10463000F04106460F4615464FF0CA323946284625
:1046400001F025FA4FF0CC302860E819A0F14404BD
:104650004FF0043020604FF0053060604FF00630BE
:10466000A0604FF00730E0604FF0083020614FF05D
:10467000093060614FF01030A0614FF01130E061FF
:104680000020206266624FF00130A0624000E062CC
:104690004FF0033020634FF012306063AFF27700C9
:1046A000A0630F48E0634FF0807020642046BDE8AF
:1046B000F08100BF00BF00BFBFF34F8F00BF00BF3E
:1046C00000BF30BF00BF00BF00BFBFF36F8F00BF90
:1046D00000BF00BF704700004000002048000020DD
:1046E000FF1B000870B56248006828B100BF604831
:1046F0000068B0F57A7F01D25E4870BD5C48006802
:104700004FF47A71B0FBF1F05B49086000215B4A1D
:1047100011605160564800684FF47A72B0FBF2F1B4
:10472000481EB0F1807F01D301201BE0481E4FF0EE
:10473000E022506150170F22002807DA1407260ED6
:104740004F4C00F00F052D1F665503E01407250E92
:104750004C4C255400BF00204FF0E0229061072010
:10476000106100200346012B02D14248801CC4E79F
:104770000120454908600020BFE770B5FFF7F2FE51
:1047800005464FF0E02084693D481438006800F089
:10479000806028B14FF0E020846937480068044405
:1047A0002846FFF7E7FE204670BD2DE9F05F804602
:1047B0008946FFF7D7FE83463048C0C84FF0E02057
:1047C000D0F818A02E481438006800F0806030B18E
:1047D0004FF0E020D0F818A0761C47F100072648DB
:1047E00000680021A6FB002307FB003006FB010048
:1047F00021490968A1EB0A01541840F10005C8F8E5
:104800000050C9F800405846FFF7B4FEBDE8F09FDD
:104810002DE9F34F81B08246FFF7A4FE00901749BF
:10482000D1E900784FF0E0204469D0F818B0A4EB4B
:104830000B0913481438006800F0806020B1A4EB25
:104840000B097F1C48F100080021A7FB043208FB7C
:10485000042207FB012013EB090540EB0106CAF80F
:10486000006002990D600098FFF784FEBDE8FE8F9E
:1048700000000020000400029800002088000020B2
:1048800018ED00E000E400E0A000002000BFEFF31E
:104890000580704710B50848006810B1FDF722FD8B
:1048A00008E00648D0E900305A1C40F100000349F6
:1048B000C1E9002010BD0000A000002088000020F9
:1048C00010B50446FB48844209D10121880300F059
:1048D00083FB00214FF4804000F07EFB32E0F6487D
:1048E000844209D10121480400F083FB00214FF4E8
:1048F000003000F07EFB25E0F048844209D1012120
:10490000880400F076FB00214FF4802000F071FB5A
:1049100018E0EB48844209D10121C80400F069FB8A
:1049200000214FF4002000F064FB0BE0E5488442D6
:1049300008D10121080500F05CFB00214FF4801034
:1049400000F057FB10BD2DE9F04786B005460E4636
:104950000024A24600BFA1460027B08900B100BFD5
:104960002F462C8A4CF6FF700440F08804432C82BA
:10497000AC894EF6F3100440B08831890843718940
:1049800008430443AC81AC8A4FF6FF400440B08931
:104990000443AC8201A800F098FAC648874202D1CD
:1049A000DDF810A001E0DDF80CA0A88900F40040BB
:1049B00040B10AEBCA0000EB0A1031684900B0FBB5
:1049C000F1F807E00AEBCA0000EB0A103168890031
:1049D000B0FBF1F86420B8FBF0F004012009642179
:1049E00001FB1089A88900F4004040B1322000EB9F
:1049F000C900B0FBF1F000F00700044308E03220EA
:104A000000EB09106421B0FBF1F000F00F0004434B
:104A10002C8106B0BDE8F0874FF4165101600021EB
:104A20008180C18001810C214181002181817047F9
:104A300010B502460020108A4FF2FF0318400B8881
:104A40004C8823438C882343CC882343184310820B
:104A500010BD0021018041808180C180704721B15B
:104A6000828942F40052828104E082894DF6FF730C
:104A70001A4082817047F0B50346002400260025C5
:104A8000002040F66A17B94200D100BF1846C1F3B2
:104A9000421401F01F06012707FA06F5012C01D187
:104AA0000C3004E0022C01D1103000E014301AB1B7
:104AB00007682F43076002E00768AF430760F0BD57
:104AC0001AB1838A0B43838202E0838A8B438382F9
:104AD0007047028A4FF6F0731A400282028A0A4334
:104AE0000282704782894FF2FF731A408281828965
:104AF0000A438281704721B1828942F00202828199
:104B000004E082894FF6FD731A4082817047028A61
:104B10004FF6DF731A400282028A0A43028270470C
:104B200021B1028A42F48042028204E0028A4BF6FA
:104B3000FF731A4002827047C1F3080282807047F7
:104B400001468888C0F308007047818941F001015F
:104B500081817047028BD2B20283028B42EA01222A
:104B600002837047028B02F47F420283028B0A4366
:104B70000283704721B1828A42F02002828204E0DF
:104B8000828A4FF6DF731A408282704721B1828A8F
:104B900042F01002828204E0828A4FF6EF731A40DC
:104BA0008282704721B1828A42F00802828204E048
:104BB000828A4FF6F7731A408282704721B1828948
:104BC00042F40042828103E08289C2F30E028281B4
:104BD000704721B1828A42F40062828204E0828AB4
:104BE0004FF2FF731A4082827047828A4FF6FB733E
:104BF0001A408282828A0A438282704721B1828A65
:104C000042F00202828204E0828A4FF6FD731A406B
:104C10008282704702460020B1F5007F00D100BFBC
:104C200013880B400BB1012000E00020704701F415
:104C30000072B2F5007F00D100BFCA430280704706
:104C400070B50246002400230025002040F66A16B5
:104C5000B14200D100BFC1F3421501F01F0301268C
:104C600006FA03F3012D02D19689334006E0022DA6
:104C700002D1168A334001E0968A33400C12012695
:104C800006FA04F41688344013B10CB1012000E098
:104C9000002070BD10B50022002340F66A14A14226
:104CA00000D100BF0A1201249440A3B2DC43048067
:104CB00010BD0000003801400044004000480040A2
:104CC000004C004000500040DF48006840F0010008
:104CD000DD49086008464068DC490840DA49486018
:104CE00008460068DA490840D74908600846006865
:104CF00020F4802008600846406820F4FE004860E8
:104D00004FF41F0088607047CF49096821F4803153
:104D1000CD4A11601146096821F480211160B0F577
:104D2000803F03D0B0F5802F0ED106E0C649096858
:104D300041F48031C44A116007E0C349096841F475
:104D4000A021C14A116000E000BF00BF704710B54C
:104D500001460022002300204A11012A02D1BA4C48
:104D6000236806E0022A02D1B74C236A01E0B64C60
:104D7000636A01F01F02012494401C400CB1012021
:104D800000E0002010BD38B5002000900024002570
:104D900000BF3120FFF7DBFF05460098401C009064
:104DA0000098B0F5A06F01D0002DF2D03120FFF7B0
:104DB000CEFF08B1012400E00024204638BD0146A2
:104DC0000020A14A106820F0F80040EAC1001060FD
:104DD0007047A04908607047024600209A4B586807
:104DE00020F47C1042EA01031843974B5860704747
:104DF00098490866704701460020934A506820F0A1
:104E000003000843506070478F48406800F00C0072
:104E10007047014600208C4A506820F0F00008439B
:104E20005060704701460020874A506820F4E060D7
:104E300008435060704701460020834A506820F4C0
:104E4000605040EAC1005060704729B17E4A527AF2
:104E500002437D4B5A7204E07B4A527A82437A4B7A
:104E60005A7270477B49D83108607047014600206C
:104E7000754A506820F44040084350607047002154
:104E8000714A20321170704A82F82010012802D035
:104E900004280AD104E001216B4A2032117005E098
:104EA0000521694A2032117000E000BF00BF704741
:104EB0006949086070476449096A0143624A11629E
:104EC0007047654944390860704730B500210022B9
:104ED000002400235C4D6D6805F00C0121B104290C
:104EE00005D0082923D105E05C4D056022E05B4D2B
:104EF00005601FE0544D6D6805F47012524D6D68E9
:104F000005F48034022505EB92421CB9544D5543FB
:104F100005600BE04C4D6D6805F400351DB1504D3A
:104F20005543056002E04D4D5543056002E04B4D91
:104F3000056000BF00BF444D6D6805F0F001090930
:104F4000484D6B5C0568DD4045603F4D6D6805F47C
:104F5000E061090A434D6B5C4568DD4085603A4D70
:104F60006D6805F46051C90A3E4D6B5C4568DD40D3
:104F7000C560354D6D6805F44041890B3A4D6B5C59
:104F8000C568B5FBF3F5056130BD29B12E4A5269FC
:104F900002432D4B5A6104E02B4A526982432A4B4B
:104FA0005A61704729B1284A92690243264B9A6197
:104FB00004E0254A92698243234B9A61704729B1E4
:104FC000214AD2690243204BDA6104E01E4AD269C9
:104FD00082431D4BDA61704729B11B4AD2680243F4
:104FE000194BDA6004E0184AD2688243164BDA6043
:104FF000704729B1144A12690243134B1A6104E045
:10500000114A12698243104B1A61704712494039A4
:10501000086070470F49C86470470B49C8717047F2
:105020000948406A40F0807007494862704701466D
:105030000020054A92680A400AB1012000E00020E1
:105040007047014988727047001002400000FFF865
:10505000FFFFF6FE000042428004424200127A0046
:1050600000093D00EC000020FC00002010B50446C3
:10507000CC48844208D101210420FFF7ADFF002174
:105080000420FFF7A9FF46E0C748844208D1012168
:105090000820FFF7A1FF00210820FFF79DFF3AE05D
:1050A000C248844208D101211020FFF795FF00215A
:1050B0001020FFF791FF2EE0BD48844208D1012166
:1050C0002020FFF789FF00212020FFF785FF22E045
:1050D000B848844208D101214020FFF77DFF00211C
:1050E0004020FFF779FF16E0B348844208D1012140
:1050F0008020FFF771FF00218020FFF76DFF0AE09D
:10510000AE48844207D101218015FFF765FF0021D9
:10511000A015FFF761FF10BD10B501210846FFF78C
:105120005BFF00210120FFF757FF10BD2DE9F04183
:10513000024600250026002000230024002791F8C5
:1051400003C00CF00F0591F803C00CF0100CBCF17B
:10515000000F03D091F802C04CEA050591F800C099
:10516000BCF1000F31D0146800202BE04FF0010C8F
:105170000CFA00F3B1F800C00CEA03069E4220D1FD
:1051800083004FF00F0C0CFA03F7BC4305FA03FC45
:105190004CEA040491F803C0BCF1280F06D14FF08B
:1051A000010C0CFA00FCC2F814C00AE091F803C02C
:1051B000BCF1480F05D14FF0010C0CFA00FCC2F80D
:1051C00010C0401C0828D1D31460B1F800C0BCF155
:1051D000FF0F34DD546800202EE000F1080C4FF082
:1051E000010808FA0CF3B1F800C00CEA03069E426D
:1051F00021D183004FF00F0C0CFA03F7BC4305FAE2
:1052000003FC4CEA040491F803C0BCF1280F05D15B
:1052100000F1080C08FA0CF8C2F8148091F803C0E9
:10522000BCF1480F07D100F1080C4FF0010808FA53
:105230000CF8C2F81080401C0828CED35460BDE89A
:10524000F0814FF6FF710180022181700421C1704D
:1052500070470246002093680B400BB1012000E02C
:10526000002070470146886880B2704702460020DF
:10527000D3680B400BB1012000E0002070470146CD
:10528000C86880B2704701617047416170470AB1D8
:10529000016100E041617047C16070474FF48032A6
:1052A0000A43826181618261826982697047024634
:1052B0000020434B18684FF68073184040EA0210F4
:1052C00008433F4B186070473E49C8617047F0B5CE
:1052D0000A46002300240021002500F00046B6F114
:1052E000004F02D1364EF16901E0354E7168C0F3CE
:1052F000034583B200F44016B6F5401F08D121F0F3
:1053000070612F4E766826F070662D4F7E6012E039
:1053100000F48016B6F5801F06D1032606FA05F4C0
:10532000A14341F0706106E0460D360103FA06F62E
:10533000B14341F0706122B1460D360103FA06F621
:10534000314300F00046B6F1004F02D11C4EF1612E
:1053500001E01B4E7160F0BD30B500228B071C0FC1
:105360000F2303FA04F2164B08338C1053F8243041
:105370009343134C08348D1044F8253023468C1089
:1053800053F824308C07240F00FA04F423430C4C08
:1053900008348D1044F8253030BD0A49DC310860EE
:1053A0007047000000080140000C0140001001405F
:1053B0000014014000180140001C01400020014081
:1053C000000001400000204231490143314A116090
:1053D000704770B5002100230F22C47804B32D4C10
:1053E000246804F4E064C4F5E064210AC1F1040314
:1053F000CA40447804FA03F1847814402143090137
:10540000254C0678A155047804F01F050124AC4012
:1054100005786D11AD0005F1E025C5F8004109E002
:10542000047804F01F050124AC401C4D0678761169
:1054300045F8264070BD1A4A0A400243154B1B1F0F
:105440001A60704739B1134A121D12680243114B9A
:105450001B1D1A6006E00F4A121D126882430D4B95
:105460001B1D1A607047042808D14FF0E02109691C
:1054700041F004014FF0E022116107E04FF0E0211C
:10548000096921F004014FF0E0221161704700002A
:105490000000FA050CED00E000E400E080E100E02F
:1054A00080FFFF1F08B501214820FFF77BFD20206A
:1054B000ADF8000010208DF8030003208DF80200E5
:1054C00069460948FFF732FE20210748FFF7DBFE57
:1054D0002020ADF8000069460448FFF727FE202190
:1054E0000248FFF7D0FE08BD000C01400018014043
:1054F00000BF704700BF4A4A128802F04002002AEB
:10550000F9D0C2B2464B1B1D1A80704710B586B049
:105510000446012144F20400FFF744FD4FF40070FB
:10552000ADF8140003208DF8160018208DF8170030
:1055300005A93C48FFF7FAFD4FF48060ADF8140070
:1055400004208DF8170005A93648FFF7EFFD252048
:105550008DF8000003208DF801008DF80200012075
:105560008DF803006846FFF734FF01940020ADF882
:105570000800ADF80A00ADF80C00ADF810000C20E2
:10558000ADF80E0001A92648FFF7DDF9012240F22F
:1055900025512348FFF76FFA01212148FFF75FFAF1
:1055A00006B010BD10B540F225511D48FFF748FB6D
:1055B00010B31B48FFF7C4FAC4B21B48008800F4BC
:1055C0000040C8B91848008800F4804060B10A2C37
:1055D00003D000201449088020E01348008840F4DC
:1055E00000401149088019E00D2C06D10E480088B2
:1055F00040F480400C49088010E00B480088C0F35C
:105600000D000A490C5408480088401C06490880CF
:1056100008460088C72801DD0020088010BD000072
:105620000038014000080140040100209E020020D3
:10563000704753EA020C00F069802DE9F04B4FF0FF
:105640000006002B1FBFB3FA83F503FA05F424FA12
:1056500005F65E4012BF1643B2FA82F502FA05F46F
:10566000C5F120051EBF22FA05FC44EA0C042035D2
:1056700056EA044C4FEA144418BF641C4FF000086B
:105680004FF00009904271EB030C39D3002919BF88
:10569000B1FA81F701FA07F6B0FA80F700FA07F6D7
:1056A000C7F120071EBF20FA07FC46EA0C06203788
:1056B000B6FBF4FCA7EB0507103F07F01F0BCBF17F
:1056C00020060CFA0BFB2CFA06F644BFB346002664
:1056D000202FA4BF5E464FF0000B5BEA060C08BF0C
:1056E0004FF0010B19EB0B09ABFB027C48EB0608F2
:1056F000C01B06FB02CC0BFB03CC71EB0C01C1E71A
:105700000B46024641464846BDE8F08B13B54FF0C4
:1057100000004FF00001AFF30080BDE81C4070476F
:105720000FB4044910B503AA029800F09FFA10BC08
:105730005DF814FB0001002070B50446856900681F
:10574000C10601D5302600E02026C00707D070BD75
:10575000D4E9012130469047206A401C20626D1E2A
:10576000F6D570BD70B5044685690078C00707D1CD
:1057700070BDD4E9012120209047206A401C20629E
:105780006D1EF6D570BD70B50C460546012A05D0D4
:105790002878800600D5EA69002302E0012305E0AD
:1057A0005B1C934202D2E05C0028F9D1A869E6189C
:1057B000C01AA861286A184428622846FFF7BCFF6F
:1057C00004E0D5E9012114F8010B9047B442F8D365
:1057D0002846FFF7C7FF70BD2DE9F04106460024BB
:1057E00010687529314616A510D0AFF30080002847
:1057F00002DA404213A507E031688A0701D512A5F5
:1058000002E0490704D511A5012401E0AFF30080AF
:1058100000210A2206F1240709E0B0FBF2FCB0FBEC
:10582000F2F302FB1C00303078541846491C002863
:10583000F3D123462A463046BDE8F04100F0A7B92F
:10584000000000002D0000002B00000020000000E0
:10585000F0B40D460188090502D51B4C7C4402E0DA
:10586000194C7C440E34002100F1240305E002F0C1
:105870000F061209A65D5E54491C002AF7D1027872
:105880000023120704D5702D06D009B1022311346C
:105890002246F0BC00F07BB901231034F8E770B564
:1058A00004460D4621461068AFF3008002462946A3
:1058B0002046BDE87040CBE70368126843F0200340
:1058C00003600823C361C3E7C80900002DE9F05F46
:1058D000894604464FF0000ADFF824B1FB44C0F8C3
:1058E00020A02046E168884700287DD0252806D0E2
:1058F000D4E901219047206A401C2062F1E700258D
:105900005F462046E16888472028064607DB312E9F
:1059100005D2B81910F8200C08B10543F1E7A80723
:1059200001D525F00405C4F81CA00027C4F818A070
:105930002A2E09D0304600F02BFA38B304EB870842
:10594000303EC8F8186019E059F8041B204604EBF3
:1059500087029161E1688847012F064618D1E06906
:10596000002820DA25F020051DE0D8F8180000EB0B
:10597000800006EB40003038C8F818002046E16887
:105980008847064600F004FA0028EED1012F0AD01D
:105990002E2E08D12046E16888477F1C0646022F3C
:1059A00045F02005C4DBA069002803DA404245F039
:1059B0000105A061E80701D025F01005A6B1A6F108
:1059C0004100192802D8203645F400654A46314680
:1059D000204625604D46FAF7E5FB60B1012807D067
:1059E000ED1D25F0070000E007E000F1080978E769
:1059F00005F1040975E730467AE7206ABDE8F09FB3
:105A000070090000032A40F2308010F0030C00F00F
:105A1000158011F8013BBCF1020F624498BF11F8E8
:105A200001CB00F8013B38BF11F8013BA2F10402A1
:105A300098BF00F801CB38BF00F8013B11F0030319
:105A400000F02681083AC0F0088051F8043B083A7B
:105A500051F804CBA0E80810F5E7121D5CBF51F81F
:105A6000043B40F8043BAFF30080D20724BF11F899
:105A7000013B11F801CB48BF11F8012B24BF00F8FE
:105A8000013B00F801CB48BF00F8012B704702F042
:105A9000FF0343EA032242EA024200F002B84FF059
:105AA00000020429C0F0128010F0030C00F01B80EB
:105AB000CCF1040CBCF1020F18BF00F8012BA8BFF9
:105AC00020F8022BA1EB0C0100F00DB85FEAC17CBD
:105AD00024BF00F8012B00F8012B48BF00F8012B70
